 000000000000                                                                          
A000772000001VAN DERZEIL A                                                            9
A000772000002DE SILVA C                                                               9
A000772000007MENDIS M                                                                 9
A000772000009MUNASINGHE N                                                             9
A000772000013JAYATUNGE J                                                              9
A000772000015FERDINANDS D                                                             9
A000772000016ALUWIHARE D                                                              9
A000772000018PULLENAYAGAM V                                                           9
A000772000020PERERA R W                                                               9
A000772000021SAMARASINGHE N D                                               407881524 9
A000772000022WICKREMASINGHE S                                                         9
A000772000025VETHAMANICKAM R                                                          9
A000772000027RODRIGO S                                                                9
A000772000029CHELVADURAI L                                                            9
A000772000030SOMANATHAN N                                                             9
A000772000031ARULPRAGASAM R                                                           9
A000772000032WICKREMASINGHE S                                                         9
A000772000035ROBERT K                                                                 9
A000772000036JINADASA M                                                               9
A000772000037MARTIN H G                                                     381641619 9
A000772000042ACHIMUTHU R                                                              9
A000772000043SEBASTIAN F                                                              9
A000772000048BANDARA W                                                                9
A000772000049GUNAPALA B                                                               9
A000772000050GUNATILLEKE W                                                            9
A000772000051ARIYAPALA V K                                                  370630402 9
A000772000052JOHN S                                                                   9
A000772000055WIJESEKERA A                                                             9
A000772000056AMERASINGHE N                                                            9
A000772000057SUMANAWATHIE                                                             9
A000772000058BANDARAMENIKE A                                                          9
A000772000062ARTHUR G                                                                 9
A000772000063LIONEL K                                                                 9
A000772000065JEYARAJ C G L                                                            9
A000772000069NADARAJAH S                                                              9
A000772000070BANDARAMENIKE W                                                          9
A000772000071ROSLIN K                                                                 9
A000772000073PREMADASA H                                                              9
A000772000074KANAGARAJHA T                                                            9
A000772000075VELU S                                                                   9
A000772000076ANTHONY D M                                                              9
A000772000077PETER R G                                                                9
A000772000078ARIYADASA U G                                                            9
A000772000081JINADASA M G                                                             9
A000772000084MARY R                                                                   9
A000772000085CECILY HAMINE M G                                                        9
A000772000086JOSEPH                                                                   9
A000772000087JOHN A K                                                                 9
A000772000088LEKAMGE L                                                                9
A000772000091FERNANDO T                                                               9
A000772000097SENNIVIRATNE R                                                           9
A000772000105JAYAWICKREMA S R N                                                       9
A000772000107MENDIS P                                                                 9
A000772000111DE SILVA S                                                               9
A000772000112CHANDRASIRI BADERE                                                       9
A000772000115KATHIRAVELU K                                                            9
A000772000117ANTONY M                                                                 9
A000772000118D L GUNAWATHIE                                                           9
A000772000120CHANDRASENA P K                                                390880529 9
A000772000121DRAHAMAN K                                                               9
A000772000122MUTTIAH A                                                                9
A000772000123MENDIS S                                                                 9
A000772000124SENERATNE G                                                              9
A000772000125WILLIAMS D                                                               9
A000772000126SOMACHANDRA MALINI                                                       9
A000772000129KARUNAWATHIE V G                                                         9
A000772000130PETER K G                                                                9
A000772000132GUNAWARDENE BRENDA                                                       9
A000772000134BILSBOROUGH YVETTE                                                       9
A000772000135MARASSINGHE J                                                            9
A000772000138RAJASINGHAM MOHINI                                                       9
A000772000140GUNADASA DINORIS M                                                       9
A000772000141SATHANANTHAN PARAMESWARIE                                                9
A000772000142FERNANDO S K                                                   446873040 9
A000772000143SANGAKKARA BISSOMENIKE                                                   9                                       
A001335000128WIJESINGHE  W A P N                                            666031067 9
A001335000129SILVA P I                                                      713351091V9
A001335000130RANATUNGA R A R                                                722422201V9
A001335000131SOMADASA P                                                     393311851 9
A001335000132WIMALASENA G H                                                 362720990 9
A001335000133KUMARA D T W                                                   652923232V9
A001335000134WEERASINGHE H L                                                572111903V9
A001335000135PREMADASA K G                                                  600963520V9
A001335000136CHANDANA JAYALATH K S P                                        752092729V9
A001335000137SUMANADASA S T                                                 603003144V9
A001335000138SUDESHINI B A E                                                836561015V9
A001335000139VITHANAGE P K                                                  838333001V9
A001335000140PERERA R A S                                                   451901716V9
A001335000141LALITH SENADEERA J M                                           722912004V9
A001335000142ERANGA H W P                                                   816992400V9
A001335000143WICKRAMARACHCHI W P C                                          660970070V9
A001335000144PRIYANKARA K                                                   763530086V9
A001335000145WIMALASIRI R A                                                 641703613V9
A001335000146PUSHPA KUMARA W P                                              771492746V1
A001335000147SUDATH ASANTHA T H                                             733292636V9
A001335000148CHANDRARATNA H P                                               653354045V9
A001335000149SOMAPALA R G                                                   483632436V9
A001335000150PRIYANTHI KUMARI P                                             727520350V9
A001335000151SOMAWANSA N A N                                                668160255 9
A001335000152KUMARA R A S                                                   583520015 9
A001335000153PREMADASA S M                                                  610232272 9
A001335000154KAVIKARA P N                                                   662890600V9
A001335000155BASTIYANS P T                                                  840370054 9
A001335000156KUMARA  K A S                                                  830870546 9
A001335000157MUNASINGHE M A D I G                                           825023615 9
A001335000158NISANSALA D M T                                                815320573V9
A001335000159GUNAWARDA M                                                    431222272 9
A001335000160SAMARASENA I D                                                 452980088V9
A001335000161JAYAWARDANA S M S P                                            850162158 9
A001335000162PERERA R A S                                                   442453845 9
A001335000163ABEYSEKARA E K C V                                             846021922V9
A001335000164THUSHITHA M K                                                  825192778V9
A001335000165SOMAPALA  R G                                                  483632436 9
A001335000166MADDUMA BANDARA G G                                            690964465 9
A001335000167WIJEYASIRI M W G                                               782211544 9
A001335000168COORAY N S S                                                   837980402 9
A001335000169FERNANDO H S A T                                               751290721V9
A001335000170WEERASINGHE H L                                                572111903V9
A001335000171ARIYADASA B A                                                  570173731V9
A001335000172AMEER HAMZA M H                                                810783605 9
A001335000173CHANDANA KUMARA S K D                                          880680986V9
A001335000174SARATH S C                                                     601460343V9
A001335000175CHATHURANGEE R S A                                             885540392V9
A001335000176MARASINGHE K A                                                 681251006V9
A001335000177SASEEKARAN S                                                   840592413V9
A001335000178WIJESINGHE C D                                                 865052014V9
A001335000179PERAMUNU GAMAGE P G DON D                                      816354137V9
A001335000180DISANAYAKA N D                                                 895681792V9
A001335000181PUBUDU PUNYAPPRIYA D A                                         651050510V9
A001335000182MUDITHA CHAMINDA K M                                           880361040V9
A001335000183OBEYSEKARA K G N                                               613151435V9
A001335000184GUNAWARDANA M                                                  431222272V9
A001335000187PIYASENA H A                                                   531302893V9
A001335000188SAMARAWEERA W A R                                              681413910V9
A001335000189ROHAN SRIYANTHA BERNARD VAS M                                  631531059V9
A001335000190DISSANAYAKA D M I                                              885611648V9
A001335000191DIMALI R                                                       895033847 9
A001335000192MADUSANKA  S H D                                               883201671V9
A001335000193JAYANETHI W A                                                  660062483V9
A001335000194DISANAYAKA H I                                                 916701535V9
A001335000195WEERASINGHE H L                                                572111903V9
A001335000196WEERASINGHE P N                                                810131047V1
A001335000197PATHIRANAGE O P S M                                            888612920V9
A001335000198PRIYADARSHANI L A V S                                          907531759V9
A001335000199WIJAYAN M                                                      740892045V9
A001335000200DHARMASENA P N P                                               760532614V1
A001335000201DE SILVA A S S                                                 872863699V9
A001335000202RADDALGODA P L A S                                             917341257V9
A001335000203KUMARA D T W                                                   652923232V9
A001335000204HANSANI G W A N                                                907912361V9
A001335000205SEBASTIAN J M                                               197800101572 1
A001335000206URDHI APPUWADUGE LAKMINI AYESH                                 896730207V9
A001335000207PRIYADARSHANI L A V S                                          907531759V9
A001335000208KUMARI T K S G                                                 915270875V9
A001335000209WEROMALI B V N                                                 657213284V9
A001335000210SENARATHNA C A                                                 716472485V9
A001335000211DE SOYZA H S H                                                 877593053V9
A001335000212WIJEGUNAWARDHANA N D D G S                                     772152434V9
A001335000213SAMUDRIKA CHATHURANI S W L A M                                 888232397V9
A001335000214PEIRIS T R A                                                   860043882V 
A001335000215ANUSHIKA SANDAMALI RADDALGODA                                  917341257V 
A001335000216JUDY CHRISHNI MAGADEESWARAN                                              9
A001335000217HARSHANI R E                                                   935512514V9
A001335000218SHANTHA W A                                                    700652220V 
A001335000219JAYASUNDARA S A                                                742293165V9
A001335000220PUSHPAKUMARA T A                                               881660156V 
A001335000221PERERA W D D                                                   933293610V9
A001335000222KAVIKARA R G                                                   571050846V 
A001335000223CHANDRASIRI A A                                                672190614V9
A001335000224WIJESINGHE A S                                                 562590110V9
A001335000225DINUSHA                                                        902501185V9
A001335000226SENANI E M P                                                   918040536V 
A001335000227WANIGASEKARA A S                                               926200569V9
A001335000228PRASANNA K A A                                                 892341885V 
A001335000229LAKSHANI E M R                                                 937540540V 
A001335000230PUSHPA KUMARA K D D                                            823081928V 
A001335000231UPALI T                                                        673062027V1
A001335000232ARIYADASA B A                                                  570173731V9
A001335000233SAMPATH H M D C                                                902501185V 
A001335000234NUVAN DE SILVA M M                                             861521095V 
A001335000235JINADASA R D                                                   441951213V9
A001335000236MADUSHANI P T                                                  956963915V 
A001335000237ABEYGUNAWARDANA P R                                            560440569V 
A001335000238COTLING D                                                      830432370V 
A001335000239MUTHUKUMARANA S S                                              843370705V                                          9
A001359000078SAWALL S B                                                     381651825 9
A001359000079VELU P                                                                   9
A001359000080KUTUBDEEN T                                                    623134849V9
A001359000081ZAMAN S H F                                                    652061273V9
A001359000082NILAMDEEN                                                                9
A001359000083MURUGIAH K                                                               9
A001359000084M B M MAHROOF                                                  472410970 9
A001359000085P PONNAIAH                                                               9
A001359000086J SELVAM                                                                 9
A001359000087A R M SIDDEEK                                                  640540702 9
A001359000088M ARUGHNAN                                                     522032522 9
A001359000089M S MARY                                                       648183178X9
A001359000090R A CHANDRA                                                    505334353V9
A001359000091J M CHANDRA                                                    565361961 9
A001359000092S B FRANCIS                                                    670522288 9
A001359000093AZEEZ A W A                                                    661792477 9
A001359000094RAFFEEK S H M                                                  643541670 9
A001359000095BRIDGET R A D                                                  625942373 9
A001359000096AFLAN M S M                                                    710681627 9
A001359000097FAHIR A M                                                                9
A001359000098DHARMASIRI J K G                                               701450434 9
A001359000099PARMILA P K                                                              9
A001359000100MAHAROOF M                                                               9
A001359000101FAHIM M M                                                                9
A001359000102NAZZAR M                                                                 9
A001359000103YOOSUF A M                                                               9
A001359000104RAZEEM S M                                                     563533439V9
A001359000105M THAHIR                                                                 9
A001359000106HAJA MOHIDEEN                                                            9
A001359000107SUWADUL NAIMA M H                                                        9
A001359000108SRIYAWATHI W A                                                 475931670 9
A001359000109JOHNSON S M                                                    662321052 9
A001359000110PICHCHANDI P                                                   540742693V9
A001359000111MOSSES                                                                   9
A001359000112GEORGE MALARSHANKER                                                      9
A001359000113NISTHAR M M                                                    631443524 9
A001359000114MARLIYA M H S                                                  575893856V9
A001359000115NAUFFER A                                                      602282255 9
A001359000116ZAINUL ABDEEN S M                                              652650864 9
A001359000117NANDAWATHIE R                                                            9
A001359000118THIYAGALINGAM P                                                          9
A001359000119SIVA KUMAR S                                                             9
A001359000120SUBRAMANIAM V                                                            9
A001359000121KRESHNEV                                                                 9
A001359000122ABDUL RAMIM M                                                            9
A001359000123PANCHALINGAM S                                                 382251881V9
A001359000124RIFAI M M                                                      791101697 9
A001359000125BALAKRISHNAN A                                                 663154192V9
A001359000126RAMSIL H M                                                     773430560V9
A001359000127WANAJA R                                                                 9
A001359000128MURTAZA A                                                      712040041V9
A001359000129SHARMILA S                                                     787870635V9
A001359000130PONNAMMAH S N                                                  535092246V9
A001359000131JASEEM S M M                                                   570613782 9
A001359000132FAIZAL M R M                                                   813504014 9
A001359000133RUSHIDI  M J M                                                 592590620X9
A001359000134SRIYANI KARUNARATNE  G                                         588660672 9
A001359000135KENNES S J                                                     801441955 9
A001359000136SANGARA PILLAI K                                               592193302V9
A001359000137UDUMAN D S                                                     592430177V9
A001359000138PIYA DARSHANI E A A                                                      9
A001359000139UDAYA KUMARI E A S                                             836642163 9
A001359000140NIROSHA A S                                                    778453614V9
A001359000141NAZAR K M M                                                    651323959 9
A001359000142SHARMILA R                                                     827270636X9
A001359000143RAMZIYA A H F                                                  746593147V9
A001359000144PUSPARANI S                                                    648583842V9
A001359000145CHANDRASEELI R A                                               505334353V9
A001359000146FERNANDO J D                                                   633440611V9
A001359000147MARAKATHAVALLI K                                               915423477V9
A001359000148VINODENI G N                                                   905592866V9
A001359000149KOSALAMATHI G                                                  766724140X9
A001359000150KALYANI N N                                                    838450482V1
A001359000151PUWANESWARY S                                                  927521261V9
A001359000152IQBAL A S M                                                    571551543V1
A001359000153MARLIYA M H S                                                  575893856V1
A001359000154RAJESWARY P                                                    756663739V 
A001359000155SABDEEN M                                                      570790226V1
A001359000156SELLADURAI R                                                   493002716V1
A001359000157MARY M S                                                       648183178X1
A001359000158PUWANESWARY S                                                  927521261V 
A001359000159THIRESAMMA R                                                   727771247V9
A001359000175VIJITHRA A                                                     967093270V 
A001359000176RUKMANI P A                                                    728103469V 
A001359000177ASMA M U                                                    200264002480  
A001359000178THIRUCHEN THURAN V                                          197826005070  
A001359000179IRFAN I A M                                                 199024901821  
A001359000180DHASANTHIKA K                                               200068603952  
A001439000001NIHAL NANDASIRI S A                                                      9
A001439000007FERNANDO E R                                                             9
A001439000008FERNANDO W N G                                                           9
A001439000009M K P F J PERERA                                               460911222 9
A001439000011MUNIDASA H R                                                             9
A001439000012DE SILVA D D S                                                           9
A001439000017J P WILBERT                                                    441600348 9
A001439000018KASTHURIARACHCHI W                                                       9
A001439000019H M C PIETERSZ                                                           9
A001439000020NADARAJALINGAM R                                                         9
A001439000024WILLIAMS N                                                               9
A001439000025WEERASINGHE R                                                            9
A001439000026THIRUVANAKARASU V                                                        9
A001439000027HEWAWASAM R S                                                  502120670V9
A001439000030PERIYASAMY S                                                             9
A001439000031K P B PERERA                                                   480250508 9
A001439000032STEPHEN A                                                                9
A001439000033S F S D PACKEER                                                567543021 9
A001439000034SATHKUMARA C                                                             9
A001439000035ROBERT J                                                                 9
A001439000036R L I CORTELING                                                446912100 9
A001439000037S D BERUGODA                                                             9
A001439000038B C KLEYN                                                      645032543V9
A001439000039S HAMID                                                                  9
A001439000040M K P C H APONSO                                               495282147 9
A001439000042P PIYASENA                                                     372541261 9
A001439000043J L PIYASENA PERERA                                                      9
A001439000044S ALLES                                                        602100138 9
A001439000046A M V EMMANUEL                                                 605180400 9
A001439000047W G CHANDRADASA                                                          9
A001439000049V P C MALKANTHI                                                617152037 9
A001439000050U D PREMACHANDRA                                                         9
A001439000051J D A WEERASINGHE                                              386572318 9
A001439000052A A PUNYASIRI PERERA                                                     9
A001439000053R R S PIYADHARSA                                               651231752V9
A001439000054B E A VANDERLAAN                                               591571303 9
A001439000055FERNANDO M K P J B                                                       9
A001439000056RANAWEERA L                                                    661930551 9
A001439000057SILVA C L DE                                                   520172777 9
A001439000058MAHALINGAM M G                                                 376182126 9
A001439000059KALUWITARANA M R C                                             671001826 9
A001439000060JAYATILLEKA D R I                                              661431822 9
A001439000061DE SILVA J                                                               9
A001439000062STELLA M S                                                     676731679X9
A001439000063GUNADEVI V                                                     536222340 9
A001439000064JANSEN A M                                                     662730670 9
A001439000065BULATHSINGHALA A U A                                        196560200172 9
A001439000066EVSTACE ZIEGLAAR C                                             682660716 9
A001439000067RAJAPAKSE S N                                                  375016133 9
A001439000068SIVASUDAN P                                                    680061700 9
A001439000069ALOMA EDEMA                                                              9
A001439000070RASAIAH  R R                                                             9
A001439000071P D FERNANDO                                                             9
A001439000072GUNAWARDANA D                                                            9
A001439000073MANGALASINGHE D                                                          9
A001439000074WIJESEKERA S                                                             9
A001439000075RAUFDEEN S                                                               9
A001439000076SUSANTHA P                                                               9
A001439000078DE SILVA A W T D                                            197063503607 9
A001439000079SHARHAS R                                                                9

A022702000049DILINI  WATHSALA  K G                                          895111899V9
A022702000050FERNANDO E C                                                   520754490V9
A022702000051SENARATHNE G W D T                                             838151175V9
A022702000052DIAS S C P                                                     867572619V9
A022702000053UDAYANGANI S G R                                               867550852V9
A022702000054LIYANAGE  N L U                                                560792379V9
A022702000055JAYANTHA H H I                                                 680010846V9
A022702000056ABYSINGHE A M A                                                593620808V9
A022702000057FONSEKA N H T P                                                835771326V9
A022702000058SUBODINI NISANSALA                                             895123072V 
A022702000059KULASINGHE S M C                                               661820500V9
A022702000060FERNANDO E C                                                   520754490V9
A022702000061LAKSHANI B M                                                   865391501V 
A022702000062SAMANTHA W D N                                                 740080245V 
A022702000063PIYADASA J A                                                   611310099V 
A022702000064SUMATHIPALA M G                                                620373168V9
A022702000065RUWAN U R                                                      742630110V 
A022702000066SIRIJEEWA R D                                                  730403305V 
A022702000067SRINITHA K A D D                                               783442914V 
A022702090000PREETHIKA S M E                                                          9
A022702090002LAKSHANI B M                                                   865391501  
A023001000001DE SILVA L J H                                                 592711532V9
A023001000002PONWEERA D C G                                                 423281022V9
A023001000003AMUNUGAMA K W W W M V B                                        562670297V9
A023001000004ASURUMANNA A P                                                           9
A023001000005GUNATILLAKE A A S N                                                      9
A023001000006HERATH BANDA A M                                                         9
A023001000007GUNASEKARA S I                                                 652100589V9
A023001000008SAMARASEKARA M G D                                                       9
A023001000009RATNASIRI G                                                              9
A023001000010BALAKRISHNAN K                                                           9
A023001000011WEERASINGHE M G K U                                                      9
A023001000012RANJITH A A D                                                  553110610X9
A023001000013DOOLE M F A                                                    673352294V9
A023001000014WIJAYARATHNA W M D S                                           673090060V9
A023001000015MENDIS P                                                       653452233 9
A023001000016SUDATH E                                                       652143385 9
A023001000017W A C R CINTHAKA                                                         9
A023001000018ALOYSIUS C C                                                             9
A023001000019APPUHAMY W M P                                                           9
A023001000020DE MEL W P                                                               9
A023001000021DESHAPRIYA G W A K                                             703201881V1
A023001000022FONSEKA K S N                                                  735131060V9
A023001000023NADARAJA P                                                               9
A023001000024SAMANTHA P D V                                              197118700733 9
A023001000025PRAMILA G                                                                9
A023001000026ANTHONY AMMA V R                                               646381282V9
A023001000027KALAIARASI M                                                             9
A023001000028JAYASURIYA D K                                                           9
A023001000029KUMARA G A S S                                                 650800320V9
A023001000030VITHANAGE WEERASINGHE                                                    9
A023001000031T S J PEIRIS                                                   697350284V9
A023001000032COLAMBEGE SAROJINI                                                       9
A023001000033SHAMALKA K N S                                                 746691670 9
A023001000034DEVARANI M                                                     705140847V9
A023001000035KARTHIKESAN R                                                  702351871V1
A023001000036JAMES DE SILVA                                                 561292361 9
A023001000037JAYARANI PERERA H C                                                      9
A023001000038SASI KUMARI N                                                            9
A023001000039SRIYANI  W M                                                   606952961 9
A023001000040PERERA  H P                                                              9
A023001000041ANURA PUSHPAKUMARA                                             670752313 9
A023001000042N SUJATHA KASTHURIARACHCHI                                               9
A023001000043SANDANAM J                                                               9
A023001000044NIRMALA RANJANI H                                                        9
A023001000045GUNASENA R                                                               9
A023001000046SILVA U                                                                  9
A023001000047NANAYAKKARA T                                                  690050978 9
A023001000048KAYAMBO SHANMUGANATHAN                                         583550143X9
A023001000049DEVASAGAYAM M                                                  513323239V9
A023001000050PERERA M P                                                     551962202V9
A023001000051SUDATH DAMMIKA G D                                             713032425 9
A023001000052ROHITHA JAYAWANSA K K                                          700862348 9
A023001000053HUSAIN M                                                                 9
A023001000054PATHIRANAGE R P D K M R                                        680432457V9
A023001000055PERERA P A J                                                   633131325V9
A023001000056CHINTHAKA S                                                    762661500V9
A023001000057LIYANAGE H L A S                                               742321908V9
A023001000058BOTEJU W N                                                     653461658V9
A023001000059NAZAAR A                                                                 9
A023001000060CROOS T E                                                      720481642 9
A023001000061S WIJERETNE                                                              9
A023001000062PATHIRANA C G E                                                          9
A023001000063JOHN R R                                                       681730516V9
A023001000064P KARUNATILAKE                                                 571930307V9
A023001000065JAYASIRI W A                                                   581720190V9
A023001000066M G K D DAMMIKA                                                653051816 9
A023001000067B C N R CORERA                                                           9
A023001000068B P I PERERA                                                   731490538V1
A023001000069A R GAYA ASANGA                                                642983865V9
A023001000070L B A U PRIYANKARA                                                       9
A023001000071W A R S PERERA                                                 690811146 9
A023001000072WILSON M G S R                                                 741160609V9
A023001000073I MANCHANAYAKE                                                 757712962V9
A023001000074THILAKASIRI W K N                                              702351871V9
A023001000075J A S SANJEEWA                                                           9
A023001000076M S W KUMARA SILVA                                             760271381 9
A023001000077H K S K PRIYADHARSHANA                                                   9
A023001000078PADMALAL W M S                                                 731840733V1
A023001000079S A SARATHCHANDRA                                              660122311 9
A023001000080KUMARA S B P P                                                 701102827V1
A023001000081A S S PIYARATNA                                                720384043V1
A023001000082T NILAM                                                        721640671 9
A023001000083PERERA M C S                                                   731491232V9
A023001000084S MUNASINGHE                                                             9
A023001000085J M A L JAYAKODY                                               741430169V1
A023001000086CHANDIKA K G U                                                 713360945V1
A023001000087PATHIRANA I B                                                  570540866V9
A023001000088M R RAFFAIDEEN                                                           9
A023001000089A L D G LIYANAGE                                                         9
A023001000090DALPATHADU   K J A                                             612983313V9
A023001000091J A JAYAWEERA                                                            9
A023001000092V SANDERADAS                                                   581532466X9
A023001000093CUTTILAN M D                                                             9
A023001000094PERERA L A                                                     672670179V9
A023001000095FONSEKA W M T                                                            9
A023001000096MOHAMED M S H J                                                          9
A023001000097PUSHPAKUMARA H D H                                             691160211V9
A023001000098SELVARAJA S N                                                            9
A023001000099RATNAYAKE R M L                                                740301330 9
A023001000100DEVAPRIYA A                                                              0
A023001000101CHANDRADASA M M A                                                        9
A023001000102WASANTHA KUMARA A A S                                          613455930V9
A023001000103ANURA T A                                                      642123203V1
A023001000104SANTHA W A                                                     702452040V9
A023001000105PREMATILAKE W A K D N                                          580263160V9
A023001000106SILVA JOTHY RAJAH K                                            691182576X9
A023001000107PUSHPARANI S                                                   717103661X9
A023001000108DEVIKA W A R N                                                 766571891V9
A023001000109THUSHARA G G J                                                 711902511V1
A023001000110AMARASEKARA H M D K A                                          700843270V9
A023001000111PIYADASA W G                                                             9
A023001000112MUNJULA KUMARA M K P                                           711881808 9
A023001000113WICKREMASEKARA R G S                                                     9
A023001000114SARATH BANDULA A W P D                                                   9
A023001000115DAYARATHNA P D                                                 641560421 9
A023001000116PRIYANTHA D A A         